{"abi":[{"type":"function","name":"GetFibonacci","inputs":[{"name":"n","type":"uint256","internalType":"uint256"}],"outputs":[{"name":"","type":"uint256","internalType":"uint256"}],"stateMutability":"pure"}],"bytecode":{"object":"0x608060405234801561001057600080fd5b50610300806100206000396000f3fe608060405234801561001057600080fd5b506004361061002b5760003560e01c8063bb934f2214610030575b600080fd5b61004361003e36600461025d565b610055565b60405190815260200160405180910390f35b600061005f610212565b610067610212565b815160019081905282516000602091820181905281850180518290525182018390528351528251810182905282810180518390525101525b83156100e2576100b06002856102a2565b6001036100c4576100c182826100ee565b91505b6100ce81826100ee565b90506100db6002856102b6565b935061009f565b50516020015192915050565b6100f6610212565b60005b60028160ff16101561020b5760005b60028160ff1610156102025760005b60028160ff1610156101f957848160ff166002811061013857610138610276565b60200201518260ff166002811061015157610151610276565b6020020151868460ff166002811061016b5761016b610276565b60200201518260ff166002811061018457610184610276565b602002015102848460ff166002811061019f5761019f610276565b60200201518360ff16600281106101b8576101b8610276565b602002015101848460ff16600281106101d3576101d3610276565b60200201518360ff16600281106101ec576101ec610276565b6020020152600101610117565b50600101610108565b506001016100f9565b5092915050565b60405180604001604052806002905b61022961023f565b8152602001906001900390816102215790505090565b60405180604001604052806002906020820280368337509192915050565b60006020828403121561026f57600080fd5b5035919050565b634e487b7160e01b600052603260045260246000fd5b634e487b7160e01b600052601260045260246000fd5b6000826102b1576102b161028c565b500690565b6000826102c5576102c561028c565b50049056fea26469706673582212209fc1136e5d5df03f8b3a61ebc13fdce44a4e221edf00e61fa8a6a979188c34b464736f6c63430008170033","linkReferences":{}},"methodIdentifiers":{"GetFibonacci(uint256)":"bb934f22"},"id":22}